{
  "_format": "hh-sol-artifact-1",
  "contractName": "Marketplace",
  "sourceName": "contracts/marketPlace.sol",
  "abi": [
    {
      "inputs": [],
      "stateMutability": "nonpayable",
      "type": "constructor"
    },
    {
      "anonymous": false,
      "inputs": [
        {
          "indexed": true,
          "internalType": "address",
          "name": "owner",
          "type": "address"
        },
        {
          "indexed": true,
          "internalType": "address",
          "name": "approved",
          "type": "address"
        },
        {
          "indexed": true,
          "internalType": "uint256",
          "name": "tokenId",
          "type": "uint256"
        }
      ],
      "name": "Approval",
      "type": "event"
    },
    {
      "anonymous": false,
      "inputs": [
        {
          "indexed": true,
          "internalType": "address",
          "name": "owner",
          "type": "address"
        },
        {
          "indexed": true,
          "internalType": "address",
          "name": "operator",
          "type": "address"
        },
        {
          "indexed": false,
          "internalType": "bool",
          "name": "approved",
          "type": "bool"
        }
      ],
      "name": "ApprovalForAll",
      "type": "event"
    },
    {
      "anonymous": false,
      "inputs": [
        {
          "indexed": true,
          "internalType": "uint256",
          "name": "tokenId",
          "type": "uint256"
        },
        {
          "indexed": false,
          "internalType": "address",
          "name": "owner",
          "type": "address"
        },
        {
          "indexed": false,
          "internalType": "address",
          "name": "seller",
          "type": "address"
        },
        {
          "indexed": false,
          "internalType": "uint256",
          "name": "price",
          "type": "uint256"
        },
        {
          "indexed": false,
          "internalType": "bool",
          "name": "currentlyListed",
          "type": "bool"
        }
      ],
      "name": "TokenListedSuccess",
      "type": "event"
    },
    {
      "anonymous": false,
      "inputs": [
        {
          "indexed": true,
          "internalType": "address",
          "name": "from",
          "type": "address"
        },
        {
          "indexed": true,
          "internalType": "address",
          "name": "to",
          "type": "address"
        },
        {
          "indexed": true,
          "internalType": "uint256",
          "name": "tokenId",
          "type": "uint256"
        }
      ],
      "name": "Transfer",
      "type": "event"
    },
    {
      "inputs": [
        {
          "internalType": "address",
          "name": "to",
          "type": "address"
        },
        {
          "internalType": "uint256",
          "name": "tokenId",
          "type": "uint256"
        }
      ],
      "name": "approve",
      "outputs": [],
      "stateMutability": "nonpayable",
      "type": "function"
    },
    {
      "inputs": [
        {
          "internalType": "address",
          "name": "owner",
          "type": "address"
        }
      ],
      "name": "balanceOf",
      "outputs": [
        {
          "internalType": "uint256",
          "name": "",
          "type": "uint256"
        }
      ],
      "stateMutability": "view",
      "type": "function"
    },
    {
      "inputs": [
        {
          "internalType": "string",
          "name": "tokenURI",
          "type": "string"
        },
        {
          "internalType": "uint256",
          "name": "price",
          "type": "uint256"
        }
      ],
      "name": "createToken",
      "outputs": [
        {
          "internalType": "uint256",
          "name": "",
          "type": "uint256"
        }
      ],
      "stateMutability": "payable",
      "type": "function"
    },
    {
      "inputs": [
        {
          "internalType": "uint256",
          "name": "tokenId",
          "type": "uint256"
        }
      ],
      "name": "executeSale",
      "outputs": [],
      "stateMutability": "payable",
      "type": "function"
    },
    {
      "inputs": [],
      "name": "getAllNFTs",
      "outputs": [
        {
          "components": [
            {
              "internalType": "uint256",
              "name": "tokenId",
              "type": "uint256"
            },
            {
              "internalType": "address payable",
              "name": "owner",
              "type": "address"
            },
            {
              "internalType": "address payable",
              "name": "seller",
              "type": "address"
            },
            {
              "internalType": "uint256",
              "name": "price",
              "type": "uint256"
            },
            {
              "internalType": "bool",
              "name": "currentlyListed",
              "type": "bool"
            }
          ],
          "internalType": "struct Marketplace.ListedToken[]",
          "name": "",
          "type": "tuple[]"
        }
      ],
      "stateMutability": "view",
      "type": "function"
    },
    {
      "inputs": [
        {
          "internalType": "uint256",
          "name": "tokenId",
          "type": "uint256"
        }
      ],
      "name": "getApproved",
      "outputs": [
        {
          "internalType": "address",
          "name": "",
          "type": "address"
        }
      ],
      "stateMutability": "view",
      "type": "function"
    },
    {
      "inputs": [],
      "name": "getCurrentToken",
      "outputs": [
        {
          "internalType": "uint256",
          "name": "",
          "type": "uint256"
        }
      ],
      "stateMutability": "view",
      "type": "function"
    },
    {
      "inputs": [],
      "name": "getLatestIdToListedToken",
      "outputs": [
        {
          "components": [
            {
              "internalType": "uint256",
              "name": "tokenId",
              "type": "uint256"
            },
            {
              "internalType": "address payable",
              "name": "owner",
              "type": "address"
            },
            {
              "internalType": "address payable",
              "name": "seller",
              "type": "address"
            },
            {
              "internalType": "uint256",
              "name": "price",
              "type": "uint256"
            },
            {
              "internalType": "bool",
              "name": "currentlyListed",
              "type": "bool"
            }
          ],
          "internalType": "struct Marketplace.ListedToken",
          "name": "",
          "type": "tuple"
        }
      ],
      "stateMutability": "view",
      "type": "function"
    },
    {
      "inputs": [],
      "name": "getListPrice",
      "outputs": [
        {
          "internalType": "uint256",
          "name": "",
          "type": "uint256"
        }
      ],
      "stateMutability": "view",
      "type": "function"
    },
    {
      "inputs": [
        {
          "internalType": "uint256",
          "name": "tokenId",
          "type": "uint256"
        }
      ],
      "name": "getListedTokenForId",
      "outputs": [
        {
          "components": [
            {
              "internalType": "uint256",
              "name": "tokenId",
              "type": "uint256"
            },
            {
              "internalType": "address payable",
              "name": "owner",
              "type": "address"
            },
            {
              "internalType": "address payable",
              "name": "seller",
              "type": "address"
            },
            {
              "internalType": "uint256",
              "name": "price",
              "type": "uint256"
            },
            {
              "internalType": "bool",
              "name": "currentlyListed",
              "type": "bool"
            }
          ],
          "internalType": "struct Marketplace.ListedToken",
          "name": "",
          "type": "tuple"
        }
      ],
      "stateMutability": "view",
      "type": "function"
    },
    {
      "inputs": [],
      "name": "getMyNFTs",
      "outputs": [
        {
          "components": [
            {
              "internalType": "uint256",
              "name": "tokenId",
              "type": "uint256"
            },
            {
              "internalType": "address payable",
              "name": "owner",
              "type": "address"
            },
            {
              "internalType": "address payable",
              "name": "seller",
              "type": "address"
            },
            {
              "internalType": "uint256",
              "name": "price",
              "type": "uint256"
            },
            {
              "internalType": "bool",
              "name": "currentlyListed",
              "type": "bool"
            }
          ],
          "internalType": "struct Marketplace.ListedToken[]",
          "name": "",
          "type": "tuple[]"
        }
      ],
      "stateMutability": "view",
      "type": "function"
    },
    {
      "inputs": [
        {
          "internalType": "address",
          "name": "owner",
          "type": "address"
        },
        {
          "internalType": "address",
          "name": "operator",
          "type": "address"
        }
      ],
      "name": "isApprovedForAll",
      "outputs": [
        {
          "internalType": "bool",
          "name": "",
          "type": "bool"
        }
      ],
      "stateMutability": "view",
      "type": "function"
    },
    {
      "inputs": [],
      "name": "name",
      "outputs": [
        {
          "internalType": "string",
          "name": "",
          "type": "string"
        }
      ],
      "stateMutability": "view",
      "type": "function"
    },
    {
      "inputs": [
        {
          "internalType": "uint256",
          "name": "tokenId",
          "type": "uint256"
        }
      ],
      "name": "ownerOf",
      "outputs": [
        {
          "internalType": "address",
          "name": "",
          "type": "address"
        }
      ],
      "stateMutability": "view",
      "type": "function"
    },
    {
      "inputs": [
        {
          "internalType": "uint256",
          "name": "tokenId",
          "type": "uint256"
        },
        {
          "internalType": "uint256",
          "name": "price",
          "type": "uint256"
        }
      ],
      "name": "resellToken",
      "outputs": [],
      "stateMutability": "payable",
      "type": "function"
    },
    {
      "inputs": [
        {
          "internalType": "address",
          "name": "from",
          "type": "address"
        },
        {
          "internalType": "address",
          "name": "to",
          "type": "address"
        },
        {
          "internalType": "uint256",
          "name": "tokenId",
          "type": "uint256"
        }
      ],
      "name": "safeTransferFrom",
      "outputs": [],
      "stateMutability": "nonpayable",
      "type": "function"
    },
    {
      "inputs": [
        {
          "internalType": "address",
          "name": "from",
          "type": "address"
        },
        {
          "internalType": "address",
          "name": "to",
          "type": "address"
        },
        {
          "internalType": "uint256",
          "name": "tokenId",
          "type": "uint256"
        },
        {
          "internalType": "bytes",
          "name": "data",
          "type": "bytes"
        }
      ],
      "name": "safeTransferFrom",
      "outputs": [],
      "stateMutability": "nonpayable",
      "type": "function"
    },
    {
      "inputs": [
        {
          "internalType": "address",
          "name": "operator",
          "type": "address"
        },
        {
          "internalType": "bool",
          "name": "approved",
          "type": "bool"
        }
      ],
      "name": "setApprovalForAll",
      "outputs": [],
      "stateMutability": "nonpayable",
      "type": "function"
    },
    {
      "inputs": [
        {
          "internalType": "bytes4",
          "name": "interfaceId",
          "type": "bytes4"
        }
      ],
      "name": "supportsInterface",
      "outputs": [
        {
          "internalType": "bool",
          "name": "",
          "type": "bool"
        }
      ],
      "stateMutability": "view",
      "type": "function"
    },
    {
      "inputs": [],
      "name": "symbol",
      "outputs": [
        {
          "internalType": "string",
          "name": "",
          "type": "string"
        }
      ],
      "stateMutability": "view",
      "type": "function"
    },
    {
      "inputs": [
        {
          "internalType": "uint256",
          "name": "tokenId",
          "type": "uint256"
        }
      ],
      "name": "tokenURI",
      "outputs": [
        {
          "internalType": "string",
          "name": "",
          "type": "string"
        }
      ],
      "stateMutability": "view",
      "type": "function"
    },
    {
      "inputs": [
        {
          "internalType": "address",
          "name": "from",
          "type": "address"
        },
        {
          "internalType": "address",
          "name": "to",
          "type": "address"
        },
        {
          "internalType": "uint256",
          "name": "tokenId",
          "type": "uint256"
        }
      ],
      "name": "transferFrom",
      "outputs": [],
      "stateMutability": "nonpayable",
      "type": "function"
    },
    {
      "inputs": [
        {
          "internalType": "uint256",
          "name": "_listPrice",
          "type": "uint256"
        }
      ],
      "name": "updateListPrice",
      "outputs": [],
      "stateMutability": "payable",
      "type": "function"
    }
  ],
  "bytecode": "0x6080604052662386f26fc10000600a553480156200001c57600080fd5b506040518060400160405280601381526020017f4e47454e494e46544d61726b6574706c616365000000000000000000000000008152506040518060400160405280600581526020017f4e4e46544d0000000000000000000000000000000000000000000000000000008152508160009080519060200190620000a192919062000104565b508060019080519060200190620000ba92919062000104565b50505033600960006101000a81548173ffffffffffffffffffffffffffffffffffffffff021916908373ffffffffffffffffffffffffffffffffffffffff16021790555062000219565b8280546200011290620001b4565b90600052602060002090601f01602090048101928262000136576000855562000182565b82601f106200015157805160ff191683800117855562000182565b8280016001018555821562000182579182015b828111156200018157825182559160200191906001019062000164565b5b50905062000191919062000195565b5090565b5b80821115620001b057600081600090555060010162000196565b5090565b60006002820490506001821680620001cd57607f821691505b60208210811415620001e457620001e3620001ea565b5b50919050565b7f4e487b7100000000000000000000000000000000000000000000000000000000600052602260045260246000fd5b61425280620002296000396000f3fe6080604052600436106101405760003560e01c80638e264590116100b6578063c87b56dd1161006f578063c87b56dd14610457578063d1a88ae514610494578063e0391b09146104bf578063e219fc75146104ea578063e985e9c514610506578063ef2d17461461054357610140565b80638e2645901461036557806395d89b41146103a25780639b1225c4146103cd578063a22cb465146103e9578063b88d4fde14610412578063c322579c1461043b57610140565b806342842e0e1161010857806342842e0e1461023c578063629cb2e4146102655780636352211e1461029057806368f1945f146102cd57806370a08231146102f857806372b3b6201461033557610140565b806301ffc9a71461014557806306fdde0314610182578063081812fc146101ad578063095ea7b3146101ea57806323b872dd14610213575b600080fd5b34801561015157600080fd5b5061016c60048036038101906101679190612ec5565b61056e565b604051610179919061359e565b60405180910390f35b34801561018e57600080fd5b50610197610650565b6040516101a491906135b9565b60405180910390f35b3480156101b957600080fd5b506101d460048036038101906101cf9190612f6b565b6106e2565b6040516101e191906134d0565b60405180910390f35b3480156101f657600080fd5b50610211600480360381019061020c9190612e89565b610728565b005b34801561021f57600080fd5b5061023a60048036038101906102359190612d83565b610840565b005b34801561024857600080fd5b50610263600480360381019061025e9190612d83565b6108a0565b005b34801561027157600080fd5b5061027a6108c0565b604051610287919061357c565b60405180910390f35b34801561029c57600080fd5b506102b760048036038101906102b29190612f6b565b610ced565b6040516102c491906134d0565b60405180910390f35b3480156102d957600080fd5b506102e2610d9f565b6040516102ef9190613856565b60405180910390f35b34801561030457600080fd5b5061031f600480360381019061031a9190612d1e565b610da9565b60405161032c9190613856565b60405180910390f35b61034f600480360381019061034a9190612f17565b610e61565b60405161035c9190613856565b60405180910390f35b34801561037157600080fd5b5061038c60048036038101906103879190612f6b565b610ea3565b604051610399919061383b565b60405180910390f35b3480156103ae57600080fd5b506103b7610fab565b6040516103c491906135b9565b60405180910390f35b6103e760048036038101906103e29190612f6b565b61103d565b005b3480156103f557600080fd5b50610410600480360381019061040b9190612e4d565b61127b565b005b34801561041e57600080fd5b5061043960048036038101906104349190612dd2565b611291565b005b61045560048036038101906104509190612f6b565b6112f3565b005b34801561046357600080fd5b5061047e60048036038101906104799190612f6b565b61138d565b60405161048b91906135b9565b60405180910390f35b3480156104a057600080fd5b506104a96114a0565b6040516104b6919061383b565b60405180910390f35b3480156104cb57600080fd5b506104d46115b5565b6040516104e1919061357c565b60405180910390f35b61050460048036038101906104ff9190612f94565b61186a565b005b34801561051257600080fd5b5061052d60048036038101906105289190612d47565b611a5f565b60405161053a919061359e565b60405180910390f35b34801561054f57600080fd5b50610558611af3565b6040516105659190613856565b60405180910390f35b60007f80ac58cd000000000000000000000000000000000000000000000000000000007bffffffffffffffffffffffffffffffffffffffffffffffffffffffff1916827bffffffffffffffffffffffffffffffffffffffffffffffffffffffff1916148061063957507f5b5e139f000000000000000000000000000000000000000000000000000000007bffffffffffffffffffffffffffffffffffffffffffffffffffffffff1916827bffffffffffffffffffffffffffffffffffffffffffffffffffffffff1916145b80610649575061064882611b04565b5b9050919050565b60606000805461065f90613af7565b80601f016020809104026020016040519081016040528092919081815260200182805461068b90613af7565b80156106d85780601f106106ad576101008083540402835291602001916106d8565b820191906000526020600020905b8154815290600101906020018083116106bb57829003601f168201915b5050505050905090565b60006106ed82611b6e565b6004600083815260200190815260200160002060009054906101000a900473ffffffffffffffffffffffffffffffffffffffff169050919050565b600061073382610ced565b90508073ffffffffffffffffffffffffffffffffffffffff168373ffffffffffffffffffffffffffffffffffffffff1614156107a4576040517f08c379a000000000000000000000000000000000000000000000000000000000815260040161079b906137bb565b60405180910390fd5b8073ffffffffffffffffffffffffffffffffffffffff166107c3611bb9565b73ffffffffffffffffffffffffffffffffffffffff1614806107f257506107f1816107ec611bb9565b611a5f565b5b610831576040517f08c379a00000000000000000000000000000000000000000000000000000000081526004016108289061371b565b60405180910390fd5b61083b8383611bc1565b505050565b61085161084b611bb9565b82611c7a565b610890576040517f08c379a00000000000000000000000000000000000000000000000000000000081526004016108879061381b565b60405180910390fd5b61089b838383611d0f565b505050565b6108bb83838360405180602001604052806000815250611291565b505050565b606060006108ce6007611f76565b9050600080600080600090505b848110156109f4573373ffffffffffffffffffffffffffffffffffffffff16600b600060018461090b9190613974565b815260200190815260200160002060010160009054906101000a900473ffffffffffffffffffffffffffffffffffffffff1673ffffffffffffffffffffffffffffffffffffffff1614806109cc57503373ffffffffffffffffffffffffffffffffffffffff16600b60006001846109829190613974565b815260200190815260200160002060020160009054906101000a900473ffffffffffffffffffffffffffffffffffffffff1673ffffffffffffffffffffffffffffffffffffffff16145b156109e1576001846109de9190613974565b93505b80806109ec90613b5a565b9150506108db565b5060008367ffffffffffffffff811115610a37577f4e487b7100000000000000000000000000000000000000000000000000000000600052604160045260246000fd5b604051908082528060200260200182016040528015610a7057816020015b610a5d612ae5565b815260200190600190039081610a555790505b50905060005b85811015610ce1573373ffffffffffffffffffffffffffffffffffffffff16600b6000600184610aa69190613974565b815260200190815260200160002060010160009054906101000a900473ffffffffffffffffffffffffffffffffffffffff1673ffffffffffffffffffffffffffffffffffffffff161480610b6757503373ffffffffffffffffffffffffffffffffffffffff16600b6000600184610b1d9190613974565b815260200190815260200160002060020160009054906101000a900473ffffffffffffffffffffffffffffffffffffffff1673ffffffffffffffffffffffffffffffffffffffff16145b15610cce57600181610b799190613974565b92506000600b60008581526020019081526020016000209050806040518060a0016040529081600082015481526020016001820160009054906101000a900473ffffffffffffffffffffffffffffffffffffffff1673ffffffffffffffffffffffffffffffffffffffff1673ffffffffffffffffffffffffffffffffffffffff1681526020016002820160009054906101000a900473ffffffffffffffffffffffffffffffffffffffff1673ffffffffffffffffffffffffffffffffffffffff1673ffffffffffffffffffffffffffffffffffffffff168152602001600382015481526020016004820160009054906101000a900460ff161515151581525050838681518110610cb2577f4e487b7100000000000000000000000000000000000000000000000000000000600052603260045260246000fd5b6020026020010181905250600185610cca9190613974565b9450505b8080610cd990613b5a565b915050610a76565b50809550505050505090565b6000806002600084815260200190815260200160002060009054906101000a900473ffffffffffffffffffffffffffffffffffffffff169050600073ffffffffffffffffffffffffffffffffffffffff168173ffffffffffffffffffffffffffffffffffffffff161415610d96576040517f08c379a0000000000000000000000000000000000000000000000000000000008152600401610d8d9061379b565b60405180910390fd5b80915050919050565b6000600a54905090565b60008073ffffffffffffffffffffffffffffffffffffffff168273ffffffffffffffffffffffffffffffffffffffff161415610e1a576040517f08c379a0000000000000000000000000000000000000000000000000000000008152600401610e11906136bb565b60405180910390fd5b600360008373ffffffffffffffffffffffffffffffffffffffff1673ffffffffffffffffffffffffffffffffffffffff168152602001908152602001600020549050919050565b6000610e6d6007611f84565b6000610e796007611f76565b9050610e853382611f9a565b610e8f8185611fb8565b610e99818461202c565b8091505092915050565b610eab612ae5565b600b60008381526020019081526020016000206040518060a0016040529081600082015481526020016001820160009054906101000a900473ffffffffffffffffffffffffffffffffffffffff1673ffffffffffffffffffffffffffffffffffffffff1673ffffffffffffffffffffffffffffffffffffffff1681526020016002820160009054906101000a900473ffffffffffffffffffffffffffffffffffffffff1673ffffffffffffffffffffffffffffffffffffffff1673ffffffffffffffffffffffffffffffffffffffff168152602001600382015481526020016004820160009054906101000a900460ff1615151515815250509050919050565b606060018054610fba90613af7565b80601f0160208091040260200160405190810160405280929190818152602001828054610fe690613af7565b80156110335780601f1061100857610100808354040283529160200191611033565b820191906000526020600020905b81548152906001019060200180831161101657829003601f168201915b5050505050905090565b6000600b60008381526020019081526020016000206003015490506000600b600084815260200190815260200160002060020160009054906101000a900473ffffffffffffffffffffffffffffffffffffffff1690508134146110d5576040517f08c379a00000000000000000000000000000000000000000000000000000000081526004016110cc906136fb565b60405180910390fd5b33600b600085815260200190815260200160002060010160006101000a81548173ffffffffffffffffffffffffffffffffffffffff021916908373ffffffffffffffffffffffffffffffffffffffff1602179055506001600b600085815260200190815260200160002060040160006101000a81548160ff0219169083151502179055506000600b600085815260200190815260200160002060020160006101000a81548173ffffffffffffffffffffffffffffffffffffffff021916908373ffffffffffffffffffffffffffffffffffffffff1602179055506111b96008611f84565b6111c4303385611d0f565b600960009054906101000a900473ffffffffffffffffffffffffffffffffffffffff1673ffffffffffffffffffffffffffffffffffffffff166108fc600a549081150290604051600060405180830381858888f1935050505015801561122e573d6000803e3d6000fd5b508073ffffffffffffffffffffffffffffffffffffffff166108fc349081150290604051600060405180830381858888f19350505050158015611275573d6000803e3d6000fd5b50505050565b61128d611286611bb9565b838361222f565b5050565b6112a261129c611bb9565b83611c7a565b6112e1576040517f08c379a00000000000000000000000000000000000000000000000000000000081526004016112d89061381b565b60405180910390fd5b6112ed8484848461239c565b50505050565b3373ffffffffffffffffffffffffffffffffffffffff16600960009054906101000a900473ffffffffffffffffffffffffffffffffffffffff1673ffffffffffffffffffffffffffffffffffffffff1614611383576040517f08c379a000000000000000000000000000000000000000000000000000000000815260040161137a9061369b565b60405180910390fd5b80600a8190555050565b606061139882611b6e565b60006006600084815260200190815260200160002080546113b890613af7565b80601f01602080910402602001604051908101604052809291908181526020018280546113e490613af7565b80156114315780601f1061140657610100808354040283529160200191611431565b820191906000526020600020905b81548152906001019060200180831161141457829003601f168201915b5050505050905060006114426123f8565b905060008151141561145857819250505061149b565b60008251111561148d5780826040516020016114759291906134ac565b6040516020818303038152906040529250505061149b565b6114968461240f565b925050505b919050565b6114a8612ae5565b60006114b46007611f76565b9050600b60008281526020019081526020016000206040518060a0016040529081600082015481526020016001820160009054906101000a900473ffffffffffffffffffffffffffffffffffffffff1673ffffffffffffffffffffffffffffffffffffffff1673ffffffffffffffffffffffffffffffffffffffff1681526020016002820160009054906101000a900473ffffffffffffffffffffffffffffffffffffffff1673ffffffffffffffffffffffffffffffffffffffff1673ffffffffffffffffffffffffffffffffffffffff168152602001600382015481526020016004820160009054906101000a900460ff16151515158152505091505090565b606060006115c36007611f76565b905060006115d16008611f76565b6115db6007611f76565b6115e591906139fb565b905060008167ffffffffffffffff811115611629577f4e487b7100000000000000000000000000000000000000000000000000000000600052604160045260246000fd5b60405190808252806020026020018201604052801561166257816020015b61164f612ae5565b8152602001906001900390816116475790505b5090506000805b8481101561185f573073ffffffffffffffffffffffffffffffffffffffff16600b60006001846116999190613974565b815260200190815260200160002060010160009054906101000a900473ffffffffffffffffffffffffffffffffffffffff1673ffffffffffffffffffffffffffffffffffffffff16141561184c5760006001826116f69190613974565b90506000600b60008381526020019081526020016000209050806040518060a0016040529081600082015481526020016001820160009054906101000a900473ffffffffffffffffffffffffffffffffffffffff1673ffffffffffffffffffffffffffffffffffffffff1673ffffffffffffffffffffffffffffffffffffffff1681526020016002820160009054906101000a900473ffffffffffffffffffffffffffffffffffffffff1673ffffffffffffffffffffffffffffffffffffffff1673ffffffffffffffffffffffffffffffffffffffff168152602001600382015481526020016004820160009054906101000a900460ff16151515158152505085858151811061182f577f4e487b7100000000000000000000000000000000000000000000000000000000600052603260045260246000fd5b60200260200101819052506001846118479190613974565b935050505b808061185790613b5a565b915050611669565b508194505050505090565b3373ffffffffffffffffffffffffffffffffffffffff16600b600084815260200190815260200160002060010160009054906101000a900473ffffffffffffffffffffffffffffffffffffffff1673ffffffffffffffffffffffffffffffffffffffff161461190e576040517f08c379a00000000000000000000000000000000000000000000000000000000081526004016119059061375b565b60405180910390fd5b600a543414611952576040517f08c379a0000000000000000000000000000000000000000000000000000000008152600401611949906137db565b60405180910390fd5b6000600b600084815260200190815260200160002060040160006101000a81548160ff02191690831515021790555080600b60008481526020019081526020016000206003018190555033600b600084815260200190815260200160002060020160006101000a81548173ffffffffffffffffffffffffffffffffffffffff021916908373ffffffffffffffffffffffffffffffffffffffff16021790555030600b600084815260200190815260200160002060010160006101000a81548173ffffffffffffffffffffffffffffffffffffffff021916908373ffffffffffffffffffffffffffffffffffffffff160217905550611a506008612477565b611a5b333084611d0f565b5050565b6000600560008473ffffffffffffffffffffffffffffffffffffffff1673ffffffffffffffffffffffffffffffffffffffff16815260200190815260200160002060008373ffffffffffffffffffffffffffffffffffffffff1673ffffffffffffffffffffffffffffffffffffffff16815260200190815260200160002060009054906101000a900460ff16905092915050565b6000611aff6007611f76565b905090565b60007f01ffc9a7000000000000000000000000000000000000000000000000000000007bffffffffffffffffffffffffffffffffffffffffffffffffffffffff1916827bffffffffffffffffffffffffffffffffffffffffffffffffffffffff1916149050919050565b611b77816124d3565b611bb6576040517f08c379a0000000000000000000000000000000000000000000000000000000008152600401611bad9061379b565b60405180910390fd5b50565b600033905090565b816004600083815260200190815260200160002060006101000a81548173ffffffffffffffffffffffffffffffffffffffff021916908373ffffffffffffffffffffffffffffffffffffffff160217905550808273ffffffffffffffffffffffffffffffffffffffff16611c3483610ced565b73ffffffffffffffffffffffffffffffffffffffff167f8c5be1e5ebec7d5bd14f71427d1e84f3dd0314c0f7b2291e5b200ac8c7c3b92560405160405180910390a45050565b600080611c8683610ced565b90508073ffffffffffffffffffffffffffffffffffffffff168473ffffffffffffffffffffffffffffffffffffffff161480611cc85750611cc78185611a5f565b5b80611d0657508373ffffffffffffffffffffffffffffffffffffffff16611cee846106e2565b73ffffffffffffffffffffffffffffffffffffffff16145b91505092915050565b8273ffffffffffffffffffffffffffffffffffffffff16611d2f82610ced565b73ffffffffffffffffffffffffffffffffffffffff1614611d85576040517f08c379a0000000000000000000000000000000000000000000000000000000008152600401611d7c9061361b565b60405180910390fd5b600073ffffffffffffffffffffffffffffffffffffffff168273ffffffffffffffffffffffffffffffffffffffff161415611df5576040517f08c379a0000000000000000000000000000000000000000000000000000000008152600401611dec9061365b565b60405180910390fd5b611e0083838361253f565b611e0b600082611bc1565b6001600360008573ffffffffffffffffffffffffffffffffffffffff1673ffffffffffffffffffffffffffffffffffffffff1681526020019081526020016000206000828254611e5b91906139fb565b925050819055506001600360008473ffffffffffffffffffffffffffffffffffffffff1673ffffffffffffffffffffffffffffffffffffffff1681526020019081526020016000206000828254611eb29190613974565b92505081905550816002600083815260200190815260200160002060006101000a81548173ffffffffffffffffffffffffffffffffffffffff021916908373ffffffffffffffffffffffffffffffffffffffff160217905550808273ffffffffffffffffffffffffffffffffffffffff168473ffffffffffffffffffffffffffffffffffffffff167fddf252ad1be2c89b69c2b068fc378daa952ba7f163c4a11628f55a4df523b3ef60405160405180910390a4611f71838383612544565b505050565b600081600001549050919050565b6001816000016000828254019250508190555050565b611fb4828260405180602001604052806000815250612549565b5050565b611fc1826124d3565b612000576040517f08c379a0000000000000000000000000000000000000000000000000000000008152600401611ff7906136db565b60405180910390fd5b80600660008481526020019081526020016000209080519060200190612027929190612b42565b505050565b600a543414612070576040517f08c379a00000000000000000000000000000000000000000000000000000000081526004016120679061377b565b60405180910390fd5b600081116120b3576040517f08c379a00000000000000000000000000000000000000000000000000000000081526004016120aa906137fb565b60405180910390fd5b6040518060a001604052808381526020013073ffffffffffffffffffffffffffffffffffffffff1681526020013373ffffffffffffffffffffffffffffffffffffffff16815260200182815260200160011515815250600b60008481526020019081526020016000206000820151816000015560208201518160010160006101000a81548173ffffffffffffffffffffffffffffffffffffffff021916908373ffffffffffffffffffffffffffffffffffffffff16021790555060408201518160020160006101000a81548173ffffffffffffffffffffffffffffffffffffffff021916908373ffffffffffffffffffffffffffffffffffffffff1602179055506060820151816003015560808201518160040160006101000a81548160ff0219169083151502179055509050506121ec333084611d0f565b817f9339409317fd01fabff48b703019016f49159bacc801ae872d2ca637d226e4c0303384600160405161222394939291906134eb565b60405180910390a25050565b8173ffffffffffffffffffffffffffffffffffffffff168373ffffffffffffffffffffffffffffffffffffffff16141561229e576040517f08c379a00000000000000000000000000000000000000000000000000000000081526004016122959061367b565b60405180910390fd5b80600560008573ffffffffffffffffffffffffffffffffffffffff1673ffffffffffffffffffffffffffffffffffffffff16815260200190815260200160002060008473ffffffffffffffffffffffffffffffffffffffff1673ffffffffffffffffffffffffffffffffffffffff16815260200190815260200160002060006101000a81548160ff0219169083151502179055508173ffffffffffffffffffffffffffffffffffffffff168373ffffffffffffffffffffffffffffffffffffffff167f17307eab39ab6107e8899845ad3d59bd9653f200f220920489ca2b5937696c318360405161238f919061359e565b60405180910390a3505050565b6123a7848484611d0f565b6123b3848484846125a4565b6123f2576040517f08c379a00000000000000000000000000000000000000000000000000000000081526004016123e9906135fb565b60405180910390fd5b50505050565b606060405180602001604052806000815250905090565b606061241a82611b6e565b60006124246123f8565b90506000815111612444576040518060200160405280600081525061246f565b8061244e8461273b565b60405160200161245f9291906134ac565b6040516020818303038152906040525b915050919050565b600081600001549050600081116124c3576040517f08c379a00000000000000000000000000000000000000000000000000000000081526004016124ba906135db565b60405180910390fd5b6001810382600001819055505050565b60008073ffffffffffffffffffffffffffffffffffffffff166002600084815260200190815260200160002060009054906101000a900473ffffffffffffffffffffffffffffffffffffffff1673ffffffffffffffffffffffffffffffffffffffff1614159050919050565b505050565b505050565b61255383836128e8565b61256060008484846125a4565b61259f576040517f08c379a0000000000000000000000000000000000000000000000000000000008152600401612596906135fb565b60405180910390fd5b505050565b60006125c58473ffffffffffffffffffffffffffffffffffffffff16612ac2565b1561272e578373ffffffffffffffffffffffffffffffffffffffff1663150b7a026125ee611bb9565b8786866040518563ffffffff1660e01b81526004016126109493929190613530565b602060405180830381600087803b15801561262a57600080fd5b505af192505050801561265b57506040513d601f19601f820116820180604052508101906126589190612eee565b60015b6126de573d806000811461268b576040519150601f19603f3d011682016040523d82523d6000602084013e612690565b606091505b506000815114156126d6576040517f08c379a00000000000000000000000000000000000000000000000000000000081526004016126cd906135fb565b60405180910390fd5b805181602001fd5b63150b7a0260e01b7bffffffffffffffffffffffffffffffffffffffffffffffffffffffff1916817bffffffffffffffffffffffffffffffffffffffffffffffffffffffff191614915050612733565b600190505b949350505050565b60606000821415612783576040518060400160405280600181526020017f300000000000000000000000000000000000000000000000000000000000000081525090506128e3565b600082905060005b600082146127b557808061279e90613b5a565b915050600a826127ae91906139ca565b915061278b565b60008167ffffffffffffffff8111156127f7577f4e487b7100000000000000000000000000000000000000000000000000000000600052604160045260246000fd5b6040519080825280601f01601f1916602001820160405280156128295781602001600182028036833780820191505090505b5090505b600085146128dc5760018261284291906139fb565b9150600a856128519190613ba3565b603061285d9190613974565b60f81b818381518110612899577f4e487b7100000000000000000000000000000000000000000000000000000000600052603260045260246000fd5b60200101907effffffffffffffffffffffffffffffffffffffffffffffffffffffffffffff1916908160001a905350600a856128d591906139ca565b945061282d565b8093505050505b919050565b600073ffffffffffffffffffffffffffffffffffffffff168273ffffffffffffffffffffffffffffffffffffffff161415612958576040517f08c379a000000000000000000000000000000000000000000000000000000000815260040161294f9061373b565b60405180910390fd5b612961816124d3565b156129a1576040517f08c379a00000000000000000000000000000000000000000000000000000000081526004016129989061363b565b60405180910390fd5b6129ad6000838361253f565b6001600360008473ffffffffffffffffffffffffffffffffffffffff1673ffffffffffffffffffffffffffffffffffffffff16815260200190815260200160002060008282546129fd9190613974565b92505081905550816002600083815260200190815260200160002060006101000a81548173ffffffffffffffffffffffffffffffffffffffff021916908373ffffffffffffffffffffffffffffffffffffffff160217905550808273ffffffffffffffffffffffffffffffffffffffff16600073ffffffffffffffffffffffffffffffffffffffff167fddf252ad1be2c89b69c2b068fc378daa952ba7f163c4a11628f55a4df523b3ef60405160405180910390a4612abe60008383612544565b5050565b6000808273ffffffffffffffffffffffffffffffffffffffff163b119050919050565b6040518060a0016040528060008152602001600073ffffffffffffffffffffffffffffffffffffffff168152602001600073ffffffffffffffffffffffffffffffffffffffff168152602001600081526020016000151581525090565b828054612b4e90613af7565b90600052602060002090601f016020900481019282612b705760008555612bb7565b82601f10612b8957805160ff1916838001178555612bb7565b82800160010185558215612bb7579182015b82811115612bb6578251825591602001919060010190612b9b565b5b509050612bc49190612bc8565b5090565b5b80821115612be1576000816000905550600101612bc9565b5090565b6000612bf8612bf384613896565b613871565b905082815260208101848484011115612c1057600080fd5b612c1b848285613ab5565b509392505050565b6000612c36612c31846138c7565b613871565b905082815260208101848484011115612c4e57600080fd5b612c59848285613ab5565b509392505050565b600081359050612c70816141c0565b92915050565b600081359050612c85816141d7565b92915050565b600081359050612c9a816141ee565b92915050565b600081519050612caf816141ee565b92915050565b600082601f830112612cc657600080fd5b8135612cd6848260208601612be5565b91505092915050565b600082601f830112612cf057600080fd5b8135612d00848260208601612c23565b91505092915050565b600081359050612d1881614205565b92915050565b600060208284031215612d3057600080fd5b6000612d3e84828501612c61565b91505092915050565b60008060408385031215612d5a57600080fd5b6000612d6885828601612c61565b9250506020612d7985828601612c61565b9150509250929050565b600080600060608486031215612d9857600080fd5b6000612da686828701612c61565b9350506020612db786828701612c61565b9250506040612dc886828701612d09565b9150509250925092565b60008060008060808587031215612de857600080fd5b6000612df687828801612c61565b9450506020612e0787828801612c61565b9350506040612e1887828801612d09565b925050606085013567ffffffffffffffff811115612e3557600080fd5b612e4187828801612cb5565b91505092959194509250565b60008060408385031215612e6057600080fd5b6000612e6e85828601612c61565b9250506020612e7f85828601612c76565b9150509250929050565b60008060408385031215612e9c57600080fd5b6000612eaa85828601612c61565b9250506020612ebb85828601612d09565b9150509250929050565b600060208284031215612ed757600080fd5b6000612ee584828501612c8b565b91505092915050565b600060208284031215612f0057600080fd5b6000612f0e84828501612ca0565b91505092915050565b60008060408385031215612f2a57600080fd5b600083013567ffffffffffffffff811115612f4457600080fd5b612f5085828601612cdf565b9250506020612f6185828601612d09565b9150509250929050565b600060208284031215612f7d57600080fd5b6000612f8b84828501612d09565b91505092915050565b60008060408385031215612fa757600080fd5b6000612fb585828601612d09565b9250506020612fc685828601612d09565b9150509250929050565b6000612fdc83836133be565b60a08301905092915050565b612ff181613a41565b82525050565b61300081613a2f565b82525050565b600061301182613908565b61301b8185613936565b9350613026836138f8565b8060005b8381101561305757815161303e8882612fd0565b975061304983613929565b92505060018101905061302a565b5085935050505092915050565b61306d81613a53565b82525050565b61307c81613a53565b82525050565b600061308d82613913565b6130978185613947565b93506130a7818560208601613ac4565b6130b081613c90565b840191505092915050565b60006130c68261391e565b6130d08185613958565b93506130e0818560208601613ac4565b6130e981613c90565b840191505092915050565b60006130ff8261391e565b6131098185613969565b9350613119818560208601613ac4565b80840191505092915050565b6000613132601b83613958565b915061313d82613ca1565b602082019050919050565b6000613155603283613958565b915061316082613cca565b604082019050919050565b6000613178602583613958565b915061318382613d19565b604082019050919050565b600061319b601c83613958565b91506131a682613d68565b602082019050919050565b60006131be602483613958565b91506131c982613d91565b604082019050919050565b60006131e1601983613958565b91506131ec82613de0565b602082019050919050565b6000613204602383613958565b915061320f82613e09565b604082019050919050565b6000613227602983613958565b915061323282613e58565b604082019050919050565b600061324a602e83613958565b915061325582613ea7565b604082019050919050565b600061326d604083613958565b915061327882613ef6565b604082019050919050565b6000613290603e83613958565b915061329b82613f45565b604082019050919050565b60006132b3602083613958565b91506132be82613f94565b602082019050919050565b60006132d6602a83613958565b91506132e182613fbd565b604082019050919050565b60006132f9602383613958565b91506133048261400c565b604082019050919050565b600061331c601883613958565b91506133278261405b565b602082019050919050565b600061333f602183613958565b915061334a82614084565b604082019050919050565b6000613362602483613958565b915061336d826140d3565b604082019050919050565b6000613385602283613958565b915061339082614122565b604082019050919050565b60006133a8602e83613958565b91506133b382614171565b604082019050919050565b60a0820160008201516133d4600085018261348e565b5060208201516133e76020850182612fe8565b5060408201516133fa6040850182612fe8565b50606082015161340d606085018261348e565b5060808201516134206080850182613064565b50505050565b60a08201600082015161343c600085018261348e565b50602082015161344f6020850182612fe8565b5060408201516134626040850182612fe8565b506060820151613475606085018261348e565b5060808201516134886080850182613064565b50505050565b61349781613aab565b82525050565b6134a681613aab565b82525050565b60006134b882856130f4565b91506134c482846130f4565b91508190509392505050565b60006020820190506134e56000830184612ff7565b92915050565b60006080820190506135006000830187612ff7565b61350d6020830186612ff7565b61351a604083018561349d565b6135276060830184613073565b95945050505050565b60006080820190506135456000830187612ff7565b6135526020830186612ff7565b61355f604083018561349d565b81810360608301526135718184613082565b905095945050505050565b600060208201905081810360008301526135968184613006565b905092915050565b60006020820190506135b36000830184613073565b92915050565b600060208201905081810360008301526135d381846130bb565b905092915050565b600060208201905081810360008301526135f481613125565b9050919050565b6000602082019050818103600083015261361481613148565b9050919050565b600060208201905081810360008301526136348161316b565b9050919050565b600060208201905081810360008301526136548161318e565b9050919050565b60006020820190508181036000830152613674816131b1565b9050919050565b60006020820190508181036000830152613694816131d4565b9050919050565b600060208201905081810360008301526136b4816131f7565b9050919050565b600060208201905081810360008301526136d48161321a565b9050919050565b600060208201905081810360008301526136f48161323d565b9050919050565b6000602082019050818103600083015261371481613260565b9050919050565b6000602082019050818103600083015261373481613283565b9050919050565b60006020820190508181036000830152613754816132a6565b9050919050565b60006020820190508181036000830152613774816132c9565b9050919050565b60006020820190508181036000830152613794816132ec565b9050919050565b600060208201905081810360008301526137b48161330f565b9050919050565b600060208201905081810360008301526137d481613332565b9050919050565b600060208201905081810360008301526137f481613355565b9050919050565b6000602082019050818103600083015261381481613378565b9050919050565b600060208201905081810360008301526138348161339b565b9050919050565b600060a0820190506138506000830184613426565b92915050565b600060208201905061386b600083018461349d565b92915050565b600061387b61388c565b90506138878282613b29565b919050565b6000604051905090565b600067ffffffffffffffff8211156138b1576138b0613c61565b5b6138ba82613c90565b9050602081019050919050565b600067ffffffffffffffff8211156138e2576138e1613c61565b5b6138eb82613c90565b9050602081019050919050565b6000819050602082019050919050565b600081519050919050565b600081519050919050565b600081519050919050565b6000602082019050919050565b600082825260208201905092915050565b600082825260208201905092915050565b600082825260208201905092915050565b600081905092915050565b600061397f82613aab565b915061398a83613aab565b9250827fffffffffffffffffffffffffffffffffffffffffffffffffffffffffffffffff038211156139bf576139be613bd4565b5b828201905092915050565b60006139d582613aab565b91506139e083613aab565b9250826139f0576139ef613c03565b5b828204905092915050565b6000613a0682613aab565b9150613a1183613aab565b925082821015613a2457613a23613bd4565b5b828203905092915050565b6000613a3a82613a8b565b9050919050565b6000613a4c82613a8b565b9050919050565b60008115159050919050565b60007fffffffff0000000000000000000000000000000000000000000000000000000082169050919050565b600073ffffffffffffffffffffffffffffffffffffffff82169050919050565b6000819050919050565b82818337600083830152505050565b60005b83811015613ae2578082015181840152602081019050613ac7565b83811115613af1576000848401525b50505050565b60006002820490506001821680613b0f57607f821691505b60208210811415613b2357613b22613c32565b5b50919050565b613b3282613c90565b810181811067ffffffffffffffff82111715613b5157613b50613c61565b5b80604052505050565b6000613b6582613aab565b91507fffffffffffffffffffffffffffffffffffffffffffffffffffffffffffffffff821415613b9857613b97613bd4565b5b600182019050919050565b6000613bae82613aab565b9150613bb983613aab565b925082613bc957613bc8613c03565b5b828206905092915050565b7f4e487b7100000000000000000000000000000000000000000000000000000000600052601160045260246000fd5b7f4e487b7100000000000000000000000000000000000000000000000000000000600052601260045260246000fd5b7f4e487b7100000000000000000000000000000000000000000000000000000000600052602260045260246000fd5b7f4e487b7100000000000000000000000000000000000000000000000000000000600052604160045260246000fd5b6000601f19601f8301169050919050565b7f436f756e7465723a2064656372656d656e74206f766572666c6f770000000000600082015250565b7f4552433732313a207472616e7366657220746f206e6f6e20455243373231526560008201527f63656976657220696d706c656d656e7465720000000000000000000000000000602082015250565b7f4552433732313a207472616e736665722066726f6d20696e636f72726563742060008201527f6f776e6572000000000000000000000000000000000000000000000000000000602082015250565b7f4552433732313a20746f6b656e20616c7265616479206d696e74656400000000600082015250565b7f4552433732313a207472616e7366657220746f20746865207a65726f2061646460008201527f7265737300000000000000000000000000000000000000000000000000000000602082015250565b7f4552433732313a20617070726f766520746f2063616c6c657200000000000000600082015250565b7f4f6e6c79206f776e65722063616e20757064617465206c697374696e6720707260008201527f6963650000000000000000000000000000000000000000000000000000000000602082015250565b7f4552433732313a2061646472657373207a65726f206973206e6f74206120766160008201527f6c6964206f776e65720000000000000000000000000000000000000000000000602082015250565b7f45524337323155524953746f726167653a2055524920736574206f66206e6f6e60008201527f6578697374656e7420746f6b656e000000000000000000000000000000000000602082015250565b7f506c65617365207375626d6974207468652061736b696e67207072696365206960008201527f6e206f7264657220746f20636f6d706c65746520746865207075726368617365602082015250565b7f4552433732313a20617070726f76652063616c6c6572206973206e6f7420746f60008201527f6b656e206f776e6572206e6f7220617070726f76656420666f7220616c6c0000602082015250565b7f4552433732313a206d696e7420746f20746865207a65726f2061646472657373600082015250565b7f4f6e6c79206974656d206f776e65722063616e20706572666f726d207468697360008201527f206f7065726174696f6e00000000000000000000000000000000000000000000602082015250565b7f486f706566756c6c792073656e64696e672074686520636f727265637420707260008201527f6963650000000000000000000000000000000000000000000000000000000000602082015250565b7f4552433732313a20696e76616c696420746f6b656e2049440000000000000000600082015250565b7f4552433732313a20617070726f76616c20746f2063757272656e74206f776e6560008201527f7200000000000000000000000000000000000000000000000000000000000000602082015250565b7f5072696365206d75737420626520657175616c20746f206c697374696e67207060008201527f7269636500000000000000000000000000000000000000000000000000000000602082015250565b7f4d616b652073757265207468652070726963652069736e2774206e656761746960008201527f7665000000000000000000000000000000000000000000000000000000000000602082015250565b7f4552433732313a2063616c6c6572206973206e6f7420746f6b656e206f776e6560008201527f72206e6f7220617070726f766564000000000000000000000000000000000000602082015250565b6141c981613a2f565b81146141d457600080fd5b50565b6141e081613a53565b81146141eb57600080fd5b50565b6141f781613a5f565b811461420257600080fd5b50565b61420e81613aab565b811461421957600080fd5b5056fea2646970667358221220c47c5ea200e5620da678e08df618b80a7e94acf1b9216f35537b870947ba516364736f6c63430008040033",
  "linkReferences": {},
  "deployedLinkReferences": {}
}